{
  "contractName": "Dex",
  "abi": [
    {
      "inputs": [
        {
          "internalType": "address",
          "name": "_tokenIn",
          "type": "address"
        },
        {
          "internalType": "address",
          "name": "_tokenOut",
          "type": "address"
        },
        {
          "internalType": "uint256",
          "name": "_amountIn",
          "type": "uint256"
        },
        {
          "internalType": "uint256",
          "name": "_amountOutMin",
          "type": "uint256"
        },
        {
          "internalType": "address",
          "name": "_to",
          "type": "address"
        }
      ],
      "name": "swap",
      "outputs": [],
      "stateMutability": "nonpayable",
      "type": "function"
    },
    {
      "inputs": [
        {
          "internalType": "address",
          "name": "_tokenIn",
          "type": "address"
        },
        {
          "internalType": "address",
          "name": "_tokenOut",
          "type": "address"
        },
        {
          "internalType": "uint256",
          "name": "_amountIn",
          "type": "uint256"
        }
      ],
      "name": "getAmountOutMin",
      "outputs": [
        {
          "internalType": "uint256",
          "name": "",
          "type": "uint256"
        }
      ],
      "stateMutability": "view",
      "type": "function"
    }
  ],
  "bytecode": "0x608060405234801561001057600080fd5b50610c2b806100206000396000f3fe608060405234801561001057600080fd5b50600436106100365760003560e01c80633c50eec11461003b578063d5bcb9b5146100bd575b600080fd5b6100a76004803603606081101561005157600080fd5b81019080803573ffffffffffffffffffffffffffffffffffffffff169060200190929190803573ffffffffffffffffffffffffffffffffffffffff16906020019092919080359060200190929190505050610155565b6040518082815260200191505060405180910390f35b610153600480360360a08110156100d357600080fd5b81019080803573ffffffffffffffffffffffffffffffffffffffff169060200190929190803573ffffffffffffffffffffffffffffffffffffffff1690602001909291908035906020019092919080359060200190929190803573ffffffffffffffffffffffffffffffffffffffff1690602001909291905050506105ab565b005b6000606073c02aaa39b223fe8d0a0e5c4f27ead9083c756cc273ffffffffffffffffffffffffffffffffffffffff168573ffffffffffffffffffffffffffffffffffffffff1614806101e6575073c02aaa39b223fe8d0a0e5c4f27ead9083c756cc273ffffffffffffffffffffffffffffffffffffffff168473ffffffffffffffffffffffffffffffffffffffff16145b156102ca57600267ffffffffffffffff8111801561020357600080fd5b506040519080825280602002602001820160405280156102325781602001602082028036833780820191505090505b509050848160008151811061024357fe5b602002602001019073ffffffffffffffffffffffffffffffffffffffff16908173ffffffffffffffffffffffffffffffffffffffff1681525050838160018151811061028b57fe5b602002602001019073ffffffffffffffffffffffffffffffffffffffff16908173ffffffffffffffffffffffffffffffffffffffff1681525050610401565b600367ffffffffffffffff811180156102e257600080fd5b506040519080825280602002602001820160405280156103115781602001602082028036833780820191505090505b509050848160008151811061032257fe5b602002602001019073ffffffffffffffffffffffffffffffffffffffff16908173ffffffffffffffffffffffffffffffffffffffff168152505073c02aaa39b223fe8d0a0e5c4f27ead9083c756cc28160018151811061037e57fe5b602002602001019073ffffffffffffffffffffffffffffffffffffffff16908173ffffffffffffffffffffffffffffffffffffffff168152505083816002815181106103c657fe5b602002602001019073ffffffffffffffffffffffffffffffffffffffff16908173ffffffffffffffffffffffffffffffffffffffff16815250505b6060737a250d5630b4cf539739df2c5dacb4c659f2488d73ffffffffffffffffffffffffffffffffffffffff1663d06ca61f85846040518363ffffffff1660e01b81526004018083815260200180602001828103825283818151815260200191508051906020019060200280838360005b8381101561048d578082015181840152602081019050610472565b50505050905001935050505060006040518083038186803b1580156104b157600080fd5b505afa1580156104c5573d6000803e3d6000fd5b505050506040513d6000823e3d601f19601f8201168201806040525060208110156104ef57600080fd5b810190808051604051939291908464010000000082111561050f57600080fd5b8382019150602082018581111561052557600080fd5b825186602082028301116401000000008211171561054257600080fd5b8083526020830192505050908051906020019060200280838360005b8381101561057957808201518184015260208101905061055e565b5050505090500160405250505090508060018351038151811061059857fe5b6020026020010151925050509392505050565b8473ffffffffffffffffffffffffffffffffffffffff166323b872dd3330866040518463ffffffff1660e01b8152600401808473ffffffffffffffffffffffffffffffffffffffff1673ffffffffffffffffffffffffffffffffffffffff1681526020018373ffffffffffffffffffffffffffffffffffffffff1673ffffffffffffffffffffffffffffffffffffffff1681526020018281526020019350505050602060405180830381600087803b15801561066657600080fd5b505af115801561067a573d6000803e3d6000fd5b505050506040513d602081101561069057600080fd5b8101908080519060200190929190505050508473ffffffffffffffffffffffffffffffffffffffff1663095ea7b3737a250d5630b4cf539739df2c5dacb4c659f2488d856040518363ffffffff1660e01b8152600401808373ffffffffffffffffffffffffffffffffffffffff1673ffffffffffffffffffffffffffffffffffffffff16815260200182815260200192505050602060405180830381600087803b15801561073d57600080fd5b505af1158015610751573d6000803e3d6000fd5b505050506040513d602081101561076757600080fd5b810190808051906020019092919050505050606073c02aaa39b223fe8d0a0e5c4f27ead9083c756cc273ffffffffffffffffffffffffffffffffffffffff168673ffffffffffffffffffffffffffffffffffffffff161480610808575073c02aaa39b223fe8d0a0e5c4f27ead9083c756cc273ffffffffffffffffffffffffffffffffffffffff168573ffffffffffffffffffffffffffffffffffffffff16145b156108ec57600267ffffffffffffffff8111801561082557600080fd5b506040519080825280602002602001820160405280156108545781602001602082028036833780820191505090505b509050858160008151811061086557fe5b602002602001019073ffffffffffffffffffffffffffffffffffffffff16908173ffffffffffffffffffffffffffffffffffffffff168152505084816001815181106108ad57fe5b602002602001019073ffffffffffffffffffffffffffffffffffffffff16908173ffffffffffffffffffffffffffffffffffffffff1681525050610a23565b600367ffffffffffffffff8111801561090457600080fd5b506040519080825280602002602001820160405280156109335781602001602082028036833780820191505090505b509050858160008151811061094457fe5b602002602001019073ffffffffffffffffffffffffffffffffffffffff16908173ffffffffffffffffffffffffffffffffffffffff168152505073c02aaa39b223fe8d0a0e5c4f27ead9083c756cc2816001815181106109a057fe5b602002602001019073ffffffffffffffffffffffffffffffffffffffff16908173ffffffffffffffffffffffffffffffffffffffff168152505084816002815181106109e857fe5b602002602001019073ffffffffffffffffffffffffffffffffffffffff16908173ffffffffffffffffffffffffffffffffffffffff16815250505b737a250d5630b4cf539739df2c5dacb4c659f2488d73ffffffffffffffffffffffffffffffffffffffff166338ed173985858486426040518663ffffffff1660e01b815260040180868152602001858152602001806020018473ffffffffffffffffffffffffffffffffffffffff1673ffffffffffffffffffffffffffffffffffffffff168152602001838152602001828103825285818151815260200191508051906020019060200280838360005b83811015610aee578082015181840152602081019050610ad3565b505050509050019650505050505050600060405180830381600087803b158015610b1757600080fd5b505af1158015610b2b573d6000803e3d6000fd5b505050506040513d6000823e3d601f19601f820116820180604052506020811015610b5557600080fd5b8101908080516040519392919084640100000000821115610b7557600080fd5b83820191506020820185811115610b8b57600080fd5b8251866020820283011164010000000082111715610ba857600080fd5b8083526020830192505050908051906020019060200280838360005b83811015610bdf578082015181840152602081019050610bc4565b505050509050016040525050505050505050505056fea26469706673582212207169833cf16331b1f524694da3148d45487c54dfc1d2178d6c2b2788e913303364736f6c63430006060033",
  "immutableReferences": {},
  "source": "pragma solidity 0.6.6;\n\nimport \"@openzeppelin/contracts/token/ERC20/IERC20.sol\";\nimport \"./interfaces/Uniswap.sol\";\n\ncontract Dex {\n  address private constant UNISWAP_V2_ROUTER =\n    0x7a250d5630B4cF539739dF2C5dAcb4c659F2488D;\n  address private constant WETH = 0xC02aaA39b223FE8D0A0e5C4F27eAD9083C756Cc2;\n\n  function swap(\n    address _tokenIn,\n    address _tokenOut,\n    uint _amountIn,\n    uint _amountOutMin,\n    address _to\n  ) external {\n    IERC20(_tokenIn).transferFrom(msg.sender, address(this), _amountIn);\n    IERC20(_tokenIn).approve(UNISWAP_V2_ROUTER, _amountIn);\n\n    address[] memory path;\n    if (_tokenIn == WETH || _tokenOut == WETH) {\n      path = new address[](2);\n      path[0] = _tokenIn;\n      path[1] = _tokenOut;\n    } else {\n      path = new address[](3);\n      path[0] = _tokenIn;\n      path[1] = WETH;\n      path[2] = _tokenOut;\n    }\n\n    IUniswapV2Router(UNISWAP_V2_ROUTER).swapExactTokensForTokens(\n      _amountIn,\n      _amountOutMin,\n      path,\n      _to,\n      block.timestamp\n    );\n  }\n\n  function getAmountOutMin(\n    address _tokenIn,\n    address _tokenOut,\n    uint _amountIn\n  ) external view returns (uint) {\n    address[] memory path;\n    if (_tokenIn == WETH || _tokenOut == WETH) {\n      path = new address[](2);\n      path[0] = _tokenIn;\n      path[1] = _tokenOut;\n    } else {\n      path = new address[](3);\n      path[0] = _tokenIn;\n      path[1] = WETH;\n      path[2] = _tokenOut;\n    }\n\n    // same length as path\n    uint[] memory amountOutMins =\n      IUniswapV2Router(UNISWAP_V2_ROUTER).getAmountsOut(_amountIn, path);\n\n    return amountOutMins[path.length - 1];\n  }\n}",
  "sourcePath": "/home/hluchetu/projects/balancer/contracts/Dex.sol",
  "compiler": {
    "name": "solc",
    "version": "0.6.6+commit.6c089d02.Emscripten.clang"
  },
  "schemaVersion": "3.4.4",
  "updatedAt": "2022-03-02T22:25:12.427Z",
  "devdoc": {
    "methods": {}
  },
  "userdoc": {
    "methods": {}
  }
}